{
  "_format": "hh-sol-artifact-1",
  "contractName": "CrowdFunding",
  "sourceName": "contracts/CrowdFunding.sol",
  "abi": [
    {
      "inputs": [
        {
          "internalType": "uint256",
          "name": "",
          "type": "uint256"
        }
      ],
      "name": "campaigns",
      "outputs": [
        {
          "internalType": "address",
          "name": "owner",
          "type": "address"
        },
        {
          "internalType": "string",
          "name": "title",
          "type": "string"
        },
        {
          "internalType": "string",
          "name": "description",
          "type": "string"
        },
        {
          "internalType": "uint256",
          "name": "target",
          "type": "uint256"
        },
        {
          "internalType": "uint256",
          "name": "deadline",
          "type": "uint256"
        },
        {
          "internalType": "uint256",
          "name": "amountCollected",
          "type": "uint256"
        }
      ],
      "stateMutability": "view",
      "type": "function"
    },
    {
      "inputs": [
        {
          "internalType": "address",
          "name": "_owner",
          "type": "address"
        },
        {
          "internalType": "string",
          "name": "_title",
          "type": "string"
        },
        {
          "internalType": "string",
          "name": "_description",
          "type": "string"
        },
        {
          "internalType": "uint256",
          "name": "_target",
          "type": "uint256"
        },
        {
          "internalType": "uint256",
          "name": "_deadline",
          "type": "uint256"
        }
      ],
      "name": "createCampaign",
      "outputs": [
        {
          "internalType": "uint256",
          "name": "",
          "type": "uint256"
        }
      ],
      "stateMutability": "nonpayable",
      "type": "function"
    },
    {
      "inputs": [
        {
          "internalType": "uint256",
          "name": "_id",
          "type": "uint256"
        }
      ],
      "name": "donateToCampaign",
      "outputs": [],
      "stateMutability": "payable",
      "type": "function"
    },
    {
      "inputs": [],
      "name": "getCampaigns",
      "outputs": [
        {
          "components": [
            {
              "internalType": "address",
              "name": "owner",
              "type": "address"
            },
            {
              "internalType": "string",
              "name": "title",
              "type": "string"
            },
            {
              "internalType": "string",
              "name": "description",
              "type": "string"
            },
            {
              "internalType": "uint256",
              "name": "target",
              "type": "uint256"
            },
            {
              "internalType": "uint256",
              "name": "deadline",
              "type": "uint256"
            },
            {
              "internalType": "uint256",
              "name": "amountCollected",
              "type": "uint256"
            },
            {
              "internalType": "address[]",
              "name": "donators",
              "type": "address[]"
            },
            {
              "internalType": "uint256[]",
              "name": "donations",
              "type": "uint256[]"
            }
          ],
          "internalType": "struct CrowdFunding.Campaign[]",
          "name": "",
          "type": "tuple[]"
        }
      ],
      "stateMutability": "view",
      "type": "function"
    },
    {
      "inputs": [
        {
          "internalType": "uint256",
          "name": "_id",
          "type": "uint256"
        }
      ],
      "name": "getDonators",
      "outputs": [
        {
          "internalType": "address[]",
          "name": "",
          "type": "address[]"
        },
        {
          "internalType": "uint256[]",
          "name": "",
          "type": "uint256[]"
        }
      ],
      "stateMutability": "view",
      "type": "function"
    },
    {
      "inputs": [],
      "name": "numberOfCampaigns",
      "outputs": [
        {
          "internalType": "uint256",
          "name": "",
          "type": "uint256"
        }
      ],
      "stateMutability": "view",
      "type": "function"
    }
  ],
  "bytecode": "0x6080604052600060015534801561001557600080fd5b5061176b806100256000396000f3fe6080604052600436106100555760003560e01c8063075843c31461005a57806307ca140d146100975780630fa91fa9146100c2578063141961bc1461010057806342a4fda814610142578063a6b036331461015e575b600080fd5b34801561006657600080fd5b50610081600480360381019061007c9190610c0c565b610189565b60405161008e9190610cce565b60405180910390f35b3480156100a357600080fd5b506100ac61029d565b6040516100b99190610cce565b60405180910390f35b3480156100ce57600080fd5b506100e960048036038101906100e49190610ce9565b6102a3565b6040516100f7929190610e92565b60405180910390f35b34801561010c57600080fd5b5061012760048036038101906101229190610ce9565b6103b3565b60405161013996959493929190610f57565b60405180910390f35b61015c60048036038101906101579190610ce9565b61051f565b005b34801561016a57600080fd5b5061017361067f565b6040516101809190611275565b60405180910390f35b60008060008060015481526020019081526020016000209050428160040154106101e8576040517f08c379a00000000000000000000000000000000000000000000000000000000081526004016101df906112e3565b60405180910390fd5b868160000160006101000a81548173ffffffffffffffffffffffffffffffffffffffff021916908373ffffffffffffffffffffffffffffffffffffffff1602179055508581600101908161023c919061150f565b5083816003018190555084816002019081610257919061150f565b50828160040181905550600081600501819055506001600081548092919061027e90611610565b9190505550600180546102919190611658565b91505095945050505050565b60015481565b6060806000808481526020019081526020016000206006016000808581526020019081526020016000206007018180548060200260200160405190810160405280929190818152602001828054801561035157602002820191906000526020600020905b8160009054906101000a900473ffffffffffffffffffffffffffffffffffffffff1673ffffffffffffffffffffffffffffffffffffffff1681526020019060010190808311610307575b50505050509150808054806020026020016040519081016040528092919081815260200182805480156103a357602002820191906000526020600020905b81548152602001906001019080831161038f575b5050505050905091509150915091565b60006020528060005260406000206000915090508060000160009054906101000a900473ffffffffffffffffffffffffffffffffffffffff16908060010180546103fc90611332565b80601f016020809104026020016040519081016040528092919081815260200182805461042890611332565b80156104755780601f1061044a57610100808354040283529160200191610475565b820191906000526020600020905b81548152906001019060200180831161045857829003601f168201915b50505050509080600201805461048a90611332565b80601f01602080910402602001604051908101604052809291908181526020018280546104b690611332565b80156105035780601f106104d857610100808354040283529160200191610503565b820191906000526020600020905b8154815290600101906020018083116104e657829003601f168201915b5050505050908060030154908060040154908060050154905086565b60003490506000806000848152602001908152602001600020905080600601339080600181540180825580915050600190039060005260206000200160009091909190916101000a81548173ffffffffffffffffffffffffffffffffffffffff021916908373ffffffffffffffffffffffffffffffffffffffff1602179055508060070182908060018154018082558091505060019003906000526020600020016000909190919091505560008160000160009054906101000a900473ffffffffffffffffffffffffffffffffffffffff1673ffffffffffffffffffffffffffffffffffffffff1683604051610614906116bd565b60006040518083038185875af1925050503d8060008114610651576040519150601f19603f3d011682016040523d82523d6000602084013e610656565b606091505b5050905080156106795782826005015461067091906116d2565b82600501819055505b50505050565b6060600060015467ffffffffffffffff81111561069f5761069e610aab565b5b6040519080825280602002602001820160405280156106d857816020015b6106c56109c3565b8152602001906001900390816106bd5790505b50905060005b6001548110156109bb576000806000838152602001908152602001600020905080604051806101000160405290816000820160009054906101000a900473ffffffffffffffffffffffffffffffffffffffff1673ffffffffffffffffffffffffffffffffffffffff1673ffffffffffffffffffffffffffffffffffffffff16815260200160018201805461077190611332565b80601f016020809104026020016040519081016040528092919081815260200182805461079d90611332565b80156107ea5780601f106107bf576101008083540402835291602001916107ea565b820191906000526020600020905b8154815290600101906020018083116107cd57829003601f168201915b5050505050815260200160028201805461080390611332565b80601f016020809104026020016040519081016040528092919081815260200182805461082f90611332565b801561087c5780601f106108515761010080835404028352916020019161087c565b820191906000526020600020905b81548152906001019060200180831161085f57829003601f168201915b505050505081526020016003820154815260200160048201548152602001600582015481526020016006820180548060200260200160405190810160405280929190818152602001828054801561092857602002820191906000526020600020905b8160009054906101000a900473ffffffffffffffffffffffffffffffffffffffff1673ffffffffffffffffffffffffffffffffffffffff16815260200190600101908083116108de575b505050505081526020016007820180548060200260200160405190810160405280929190818152602001828054801561098057602002820191906000526020600020905b81548152602001906001019080831161096c575b50505050508152505083838151811061099c5761099b611706565b5b60200260200101819052505080806109b390611610565b9150506106de565b508091505090565b604051806101000160405280600073ffffffffffffffffffffffffffffffffffffffff168152602001606081526020016060815260200160008152602001600081526020016000815260200160608152602001606081525090565b6000604051905090565b600080fd5b600080fd5b600073ffffffffffffffffffffffffffffffffffffffff82169050919050565b6000610a5d82610a32565b9050919050565b610a6d81610a52565b8114610a7857600080fd5b50565b600081359050610a8a81610a64565b92915050565b600080fd5b600080fd5b6000601f19601f8301169050919050565b7f4e487b7100000000000000000000000000000000000000000000000000000000600052604160045260246000fd5b610ae382610a9a565b810181811067ffffffffffffffff82111715610b0257610b01610aab565b5b80604052505050565b6000610b15610a1e565b9050610b218282610ada565b919050565b600067ffffffffffffffff821115610b4157610b40610aab565b5b610b4a82610a9a565b9050602081019050919050565b82818337600083830152505050565b6000610b79610b7484610b26565b610b0b565b905082815260208101848484011115610b9557610b94610a95565b5b610ba0848285610b57565b509392505050565b600082601f830112610bbd57610bbc610a90565b5b8135610bcd848260208601610b66565b91505092915050565b6000819050919050565b610be981610bd6565b8114610bf457600080fd5b50565b600081359050610c0681610be0565b92915050565b600080600080600060a08688031215610c2857610c27610a28565b5b6000610c3688828901610a7b565b955050602086013567ffffffffffffffff811115610c5757610c56610a2d565b5b610c6388828901610ba8565b945050604086013567ffffffffffffffff811115610c8457610c83610a2d565b5b610c9088828901610ba8565b9350506060610ca188828901610bf7565b9250506080610cb288828901610bf7565b9150509295509295909350565b610cc881610bd6565b82525050565b6000602082019050610ce36000830184610cbf565b92915050565b600060208284031215610cff57610cfe610a28565b5b6000610d0d84828501610bf7565b91505092915050565b600081519050919050565b600082825260208201905092915050565b6000819050602082019050919050565b610d4b81610a52565b82525050565b6000610d5d8383610d42565b60208301905092915050565b6000602082019050919050565b6000610d8182610d16565b610d8b8185610d21565b9350610d9683610d32565b8060005b83811015610dc7578151610dae8882610d51565b9750610db983610d69565b925050600181019050610d9a565b5085935050505092915050565b600081519050919050565b600082825260208201905092915050565b6000819050602082019050919050565b610e0981610bd6565b82525050565b6000610e1b8383610e00565b60208301905092915050565b6000602082019050919050565b6000610e3f82610dd4565b610e498185610ddf565b9350610e5483610df0565b8060005b83811015610e85578151610e6c8882610e0f565b9750610e7783610e27565b925050600181019050610e58565b5085935050505092915050565b60006040820190508181036000830152610eac8185610d76565b90508181036020830152610ec08184610e34565b90509392505050565b610ed281610a52565b82525050565b600081519050919050565b600082825260208201905092915050565b60005b83811015610f12578082015181840152602081019050610ef7565b60008484015250505050565b6000610f2982610ed8565b610f338185610ee3565b9350610f43818560208601610ef4565b610f4c81610a9a565b840191505092915050565b600060c082019050610f6c6000830189610ec9565b8181036020830152610f7e8188610f1e565b90508181036040830152610f928187610f1e565b9050610fa16060830186610cbf565b610fae6080830185610cbf565b610fbb60a0830184610cbf565b979650505050505050565b600081519050919050565b600082825260208201905092915050565b6000819050602082019050919050565b600082825260208201905092915050565b600061100e82610ed8565b6110188185610ff2565b9350611028818560208601610ef4565b61103181610a9a565b840191505092915050565b600082825260208201905092915050565b600061105882610d16565b611062818561103c565b935061106d83610d32565b8060005b8381101561109e5781516110858882610d51565b975061109083610d69565b925050600181019050611071565b5085935050505092915050565b600082825260208201905092915050565b60006110c782610dd4565b6110d181856110ab565b93506110dc83610df0565b8060005b8381101561110d5781516110f48882610e0f565b97506110ff83610e27565b9250506001810190506110e0565b5085935050505092915050565b6000610100830160008301516111336000860182610d42565b506020830151848203602086015261114b8282611003565b915050604083015184820360408601526111658282611003565b915050606083015161117a6060860182610e00565b50608083015161118d6080860182610e00565b5060a08301516111a060a0860182610e00565b5060c083015184820360c08601526111b8828261104d565b91505060e083015184820360e08601526111d282826110bc565b9150508091505092915050565b60006111eb838361111a565b905092915050565b6000602082019050919050565b600061120b82610fc6565b6112158185610fd1565b93508360208202850161122785610fe2565b8060005b85811015611263578484038952815161124485826111df565b945061124f836111f3565b925060208a0199505060018101905061122b565b50829750879550505050505092915050565b6000602082019050818103600083015261128f8184611200565b905092915050565b7f546865206769766520612070726f70657220646561646c696e652e0000000000600082015250565b60006112cd601b83610ee3565b91506112d882611297565b602082019050919050565b600060208201905081810360008301526112fc816112c0565b9050919050565b7f4e487b7100000000000000000000000000000000000000000000000000000000600052602260045260246000fd5b6000600282049050600182168061134a57607f821691505b60208210810361135d5761135c611303565b5b50919050565b60008190508160005260206000209050919050565b60006020601f8301049050919050565b600082821b905092915050565b6000600883026113c57fffffffffffffffffffffffffffffffffffffffffffffffffffffffffffffffff82611388565b6113cf8683611388565b95508019841693508086168417925050509392505050565b6000819050919050565b600061140c61140761140284610bd6565b6113e7565b610bd6565b9050919050565b6000819050919050565b611426836113f1565b61143a61143282611413565b848454611395565b825550505050565b600090565b61144f611442565b61145a81848461141d565b505050565b5b8181101561147e57611473600082611447565b600181019050611460565b5050565b601f8211156114c35761149481611363565b61149d84611378565b810160208510156114ac578190505b6114c06114b885611378565b83018261145f565b50505b505050565b600082821c905092915050565b60006114e6600019846008026114c8565b1980831691505092915050565b60006114ff83836114d5565b9150826002028217905092915050565b61151882610ed8565b67ffffffffffffffff81111561153157611530610aab565b5b61153b8254611332565b611546828285611482565b600060209050601f8311600181146115795760008415611567578287015190505b61157185826114f3565b8655506115d9565b601f19841661158786611363565b60005b828110156115af5784890151825560018201915060208501945060208101905061158a565b868310156115cc57848901516115c8601f8916826114d5565b8355505b6001600288020188555050505b505050505050565b7f4e487b7100000000000000000000000000000000000000000000000000000000600052601160045260246000fd5b600061161b82610bd6565b91507fffffffffffffffffffffffffffffffffffffffffffffffffffffffffffffffff820361164d5761164c6115e1565b5b600182019050919050565b600061166382610bd6565b915061166e83610bd6565b9250828203905081811115611686576116856115e1565b5b92915050565b600081905092915050565b50565b60006116a760008361168c565b91506116b282611697565b600082019050919050565b60006116c88261169a565b9150819050919050565b60006116dd82610bd6565b91506116e883610bd6565b9250828201905080821115611700576116ff6115e1565b5b92915050565b7f4e487b7100000000000000000000000000000000000000000000000000000000600052603260045260246000fdfea26469706673582212209151e3c1b1926ccc414c1d07c7676204590f5251ee35e2fc4e272f33709c990964736f6c63430008130033",
  "linkReferences": {},
  "deployedLinkReferences": {}
}